:100000000C9463000C948B000C948B000C942105D1
:100010000C9421050C9421050C948B000C948B00FE
:100020000C948B000C948B000C948B000C948B0024
:100030000C948B000C948B000C948B000C948B0014
:100040000C9459070C948B000C94EF040C94C90485
:100050000C948B000C948B000C948B000C948B00F4
:100060000C948B000C948B000000000024002700EF
:100070002A0000000008000201000003040700003D
:1000800000000000000000000000230026002900FE
:1000900000000000250028002B00040404040404D0
:1000A0000404020202020202030303030303010227
:1000B00004081020408001020408102001020408F6
:1000C0001020AE0C7F0C11241FBECFEFD8E0DEBF96
:1000D000CDBF22E0A8E6B1E001C01D92A33AB2076D
:1000E000E1F711E0A0E0B1E0E4E3F4E202C0059042
:1000F0000D92A836B107D9F710E0C2E6D0E004C0EF
:100100002197FE010E94F40FC136D107C9F70E9462
:10011000E7070C940D120C9400000895CF92DF9223
:10012000EF92FF920F931F93CF93DF936C017A01AD
:100130008B01C0E0D0E0CE15DF0581F0D8016D91D4
:100140008D01D601ED91FC910190F081E02DC60169
:100150000995892B11F02196EECF7E01C701DF9121
:10016000CF911F910F91FF90EF90DF90CF90089566
:10017000FC01538D448D252F30E0842F90E0821BAD
:10018000930B541710F0CF96089501970895FC0132
:10019000918D828D981761F0828DDF01A80FB11DBE
:1001A0005D968C91928D9F5F9F73928F90E00895E2
:1001B0008FEF9FEF0895FC01918D828D981731F09C
:1001C000828DE80FF11D858D90E008958FEF9FEFF0
:1001D0000895FC01918D228D892F90E0805C9F4FC6
:1001E000821B91098F739927089580EC91E00E94FA
:1001F000E90021E0892B09F420E0822F0895FC0119
:10020000848DDF01A80FB11DA35ABF4F2C91848D9F
:1002100090E001968F739927848FA689B7892C93D4
:10022000A089B1898C91837080648C93938D848D27
:10023000981306C00288F389E02D80818F7D80832A
:100240000895EF92FF920F931F93CF93DF93EC01EA
:1002500081E0888F9B8D8C8D981305C0E889F98982
:10026000808185FD26C0F62E0B8D10E00F5F1F4F9D
:100270000F731127E02E8C8DE8120CC00FB607FC0F
:10028000FACFE889F989808185FFF5CFCE010E94F8
:10029000FF00F1CF8B8DFE01E80FF11DE35AFF4FF8
:1002A000F0829FB7F8940B8FEA89FB898081806286
:1002B0000AC09FB7F894EE89FF896083E889F989BD
:1002C00080818370806480839FBF81E090E0DF91B4
:1002D000CF911F910F91FF90EF900895CF93DF93EF
:1002E000EC01888D8823C9F0EA89FB89808185FD2E
:1002F00005C0A889B9898C9186FD0FC00FB607FC8F
:10030000F5CF808185FFF2CFA889B9898C9185FFCF
:10031000EDCFCE010E94FF00E7CFDF91CF9108958E
:1003200080E090E0892B29F00E94F50081110C9467
:10033000000008952091AA013091AB0128173907D8
:1003400071F49091A8018091A901981741F0E09172
:10035000A801F0E0E859FE4F808190E008958FEF0A
:100360009FEF089508951F93CF93DF93DC015C9670
:100370008D919C915D97009739F421E030E01396C0
:100380003C932E9312973BC05196ED91FC9152975E
:1003900050962C915097322F30951FB75E964C9106
:1003A0005E97742F727041FD6095F89440817723B9
:1003B00011F0422B01C043234083EC012197F1F758
:1003C00048E0508160FF02C0522B01C0532350838C
:1003D000EC012197F1F76695415099F780817723D9
:1003E00019F08323808302C0282B20831FBF5C96D3
:1003F0008D919C915D970197F1F781E090E0DF91FD
:10040000CF911F9108952091AA013091AB01281737
:10041000390771F48091A9012091A80190E0805CD6
:100420009F4F821B910960E470E00E948B0F08953A
:1004300080E090E008952091AA013091AB01281747
:100440003907B9F49091A8018091A901981789F012
:10045000E091A801F0E0E859FE4F80812091A801C9
:1004600030E02F5F3F4F2F7333272093A80190E098
:1004700008958FEF9FEF089580E090E008950E9427
:10048000E1110F931F93CF93DF938C01EB01FC01DC
:1004900080819181009739F06881798161157105BA
:1004A000A1F40E94921088819981F8019183808340
:1004B0008A819B81938382838C819D8195838483B0
:1004C000198218821B821A820FC0F801428153815F
:1004D0002C813D814217530720F30E94F8118C8133
:1004E0009D81F801958384831D821C82DF91CF91C9
:1004F0001F910F910895FC01808191810C949210BD
:100500000F931F93CF93DF93EC018881998100971C
:1005100029F02A813B812617370788F48B016F5F0A
:100520007F4F0E941B11009761F0998388831B8382
:100530000A832C813D81232B11F4FC01108281E080
:1005400001C080E0DF91CF911F910F910895EF924C
:10055000FF920F931F93CF93DF936115710511F4F1
:1005600080E01CC041155105C1F07B01EC018C817C
:100570009D818A01080F191FB801CE010E948002D7
:10058000882371F3288139818C819D81B701820F85
:10059000931F0E94F8111D830C8381E0DF91CF919E
:1005A0001F910F91FF90EF900895CF93DF9300D0AC
:1005B000CDB7DEB769831A8241E050E0BE016F5FBC
:1005C0007F4F0E94A7020F900F90DF91CF91089567
:1005D000CF93DF93EC0188819981009711F00E94FD
:1005E0009210198218821D821C821B821A82DF914E
:1005F000CF910895EF92FF920F931F93CF93DF93C4
:10060000EC017B018A01BA010E948002811104C0C1
:10061000CE010E94E80207C01D830C83B7018881C8
:1006200099810E94F811CE01DF91CF911F910F9116
:10063000FF90EF900895CF93DF93EC016115710562
:1006400059F0FB0101900020E9F73197AF01461BFB
:10065000570B0E94FA0202C00E94E802CE01DF910D
:10066000CF910895FB01DC0111961C921E92139606
:100670001C921E92129715961C921E921497861722
:10068000970749F0608171816115710521F04481FE
:1006900055810C94FA0208950F931F93CF93DF9323
:1006A000CDB7DEB7A8970FB6F894DEBF0FBECDBFAB
:1006B0008C016CE772E0CE0101960E94320362E881
:1006C00072E0CE0101960E9402060E94C705BC019D
:1006D000C8010E943203CE0101960E947B02609104
:1006E000BA017091BB01CE0101960E94D605BE01F0
:1006F0006F5F7F4FCE0183960E943203CE018396B7
:100700000E94C705BC01C8010E94C005CE018396A6
:100710000E947B02CE0101960E947B02609106013D
:1007200070910701CE0101960E94D605BE016F5F50
:100730007F4FCE0183960E943203CE0183960E94A2
:10074000C705BC01C8010E94C005CE0183960E9466
:100750007B02CE0101960E947B026091B4017091F0
:10076000B501CE0101960E94D605BE016F5F7F4F95
:10077000CE0183960E943203CE0183960E94C70564
:10078000BC01C8010E94C005CE0183960E947B0275
:10079000CE0101960E947B026091B0017091B1017F
:1007A0008091B2019091B3011CA21BA21EA21DA2B6
:1007B00018A61FA22AE0AE014F5F5F4F0E94B30D43
:1007C000BE016F5F7F4FCE0183960E941B03BE0167
:1007D0006D5D7F4FCE0101960E943203CE010196DE
:1007E0000E94C705BC01C8010E94C005CE01019648
:1007F0000E947B02CE0183960E947B0260910001E1
:1008000070910101CE0101960E94D605BE016F5F75
:100810007F4FCE0183960E943203CE0183960E94C1
:10082000C705BC01C8010E94C005CE0183960E9485
:100830007B02CE0101960E947B02609104017091BF
:100840000501CE0101960E94D605BE016F5F7F4F64
:10085000CE0183960E943203CE0183960E94C70583
:10086000BC01C8010E94C005CE0183960E947B0294
:10087000CE0101960E947B02C801A8960FB6F8949B
:10088000DEBF0FBECDBFDF91CF911F910F910895B5
:10089000FC0111821082138212821582148261156A
:1008A000710551F0FB0101900020E9F73197AF018C
:1008B000461B570B0C94FA020895DB0114964D91D8
:1008C0005C9115976D917C91DC01ED91FC9102801A
:1008D000F381E02D09941F93CF93DF9300D000D0D4
:1008E00000D0CDB7DEB763E371E0CE0101960E9480
:1008F000480420919802309199028D819E81281799
:10090000390730F0CE0101960E942A06182F01C047
:1009100010E0CE0101960E947B02112381F160E07C
:100920008CE00E94970668EC70E080E090E00E9406
:100930001F0764E972E08DE592E00E945D0468ECB7
:1009400070E080E090E00E941F078DE592E00E9439
:100950000302892B51F08DE592E00E941B02682F63
:1009600080EC91E00E942101F0CF68EC70E080E023
:1009700090E00E941F0761E08CE00E949706269697
:100980000FB6F894DEBF0FBECDBFDF91CF911F91A0
:1009900008951F920F920FB60F9211242F933F9339
:1009A0004F935F936F937F938F939F93AF93BF9377
:1009B000EF93FF9380EC91E00E94FF00FF91EF9195
:1009C000BF91AF919F918F917F916F915F914F9167
:1009D0003F912F910F900FBE0F901F9018951F926F
:1009E0000F920FB60F9211242F938F939F93EF9333
:1009F000FF93E091D001F091D1018081E091D60187
:100A0000F091D70182FD12C090818091D9018F5F52
:100A10008F732091DA01821751F0E091D901F0E053
:100A2000E054FE4F958F8093D90101C08081FF91E2
:100A3000EF919F918F912F910F900FBE0F901F906C
:100A400018951F920F920FB60F9211242F933F9378
:100A50004F935F936F937F938F939F93AF93BF93C6
:100A6000EF93FF93E091AA01F091AB01309709F465
:100A700051C0968DA685B785858591FF04C09C9150
:100A8000892329F447C09C91892309F043C0A38995
:100A9000B4899C918589809589238C9386899789CF
:100AA0000197F1F7608D718DA685B785558538E082
:100AB00020E0CB010197F1F7822F90E09595879583
:100AC000282F4C91452309F02068315091F7868DED
:100AD00081FD20958091A90190E001968F7399275F
:100AE0003091A801381749F0A091A901B0E0A859A8
:100AF000BE4F2C938093A90103C0868D8160868FA1
:100B0000828D938D0197F1F7A389B4899C91858992
:100B1000892B8C93FF91EF91BF91AF919F918F9112
:100B20007F916F915F914F913F912F910F900FBEE9
:100B30000F901F9018953FB7F89480919B02909169
:100B40009C02A0919D02B0919E0226B5A89B05C073
:100B50002F3F19F00196A11DB11D3FBFBA2FA92F3C
:100B6000982F8827820F911DA11DB11DBC01CD01B9
:100B700042E0660F771F881F991F4A95D1F70895A5
:100B8000FB0144815581608171810C94A702CF9350
:100B9000DF93EC016BE30E94D502811103C0CE010B
:100BA0000E94E802CE01DF91CF9108950F931F9329
:100BB000CF93DF93CDB7DEB762970FB6F894DEBF61
:100BC0000FBECDBF8C01CB01F801118210821382C0
:100BD0001282158214824AE0BE016F5F7F4F0E942D
:100BE000A80DBE016F5F7F4FC8010E941B03629674
:100BF0000FB6F894DEBF0FBECDBFDF91CF911F912E
:100C00000F910895CF93DF93EC01FB01448155814F
:100C1000608171810E94A702811103C0CE010E94F0
:100C2000E802CE01DF91CF910895CF93DF93BC010D
:100C300080EC91E00E945D04EC0142E050E064E64B
:100C400071E080EC91E00E948E008C0F9D1FDF917F
:100C5000CF910895FC0180919402909195020097A4
:100C600061F0608171816115710539F044815581B0
:100C70000E94FF1121E0892B09F020E0822F0895C6
:100C8000E0918E02F0918F02DC016D917C913097A2
:100C900019F061157105E1F46115710571F0DC0160
:100CA00014968D919C911597892B39F0FB018081C9
:100CB00090E09195819591090895309761F0809128
:100CC000920290919302892B31F0808190E00895F7
:100CD000CF010C94EF1180E090E00895833081F013
:100CE00028F4813099F08230A1F008958730A9F07E
:100CF0008830B9F08430D1F4809180008F7D03C0BA
:100D0000809180008F7780938000089584B58F77DD
:100D100002C084B58F7D84BD08958091B0008F7727
:100D200003C08091B0008F7D8093B00008951F9321
:100D3000CF93DF93282F30E0F901EE58FF4F8491D5
:100D4000F901E255FF4FD491F901E656FF4FC491E6
:100D5000CC23C1F0162F81110E946E06EC2FF0E01B
:100D6000EE0FFF1FE057FF4FA591B4919FB7F89486
:100D7000111104C08C91D095D82302C0EC91DE2BC8
:100D8000DC939FBFDF91CF911F910895CF93DF93A5
:100D900090E0FC01E255FF4F2491FC01E656FF4F25
:100DA0008491882361F190E0880F991FFC01E85934
:100DB000FF4FC591D491FC01E057FF4FA591B4912D
:100DC000611109C09FB7F894888120958223888398
:100DD000EC912E230BC0623061F49FB7F8948881A8
:100DE000322F309583238883EC912E2B2C939FBF39
:100DF00006C08FB7F894E8812E2B28838FBFDF9130
:100E0000CF9108958E3008F08E502091080190E423
:100E1000299F900111248770822B80937C00809100
:100E20007A00806480937A0080917A0086FDFCCFFE
:100E3000809178002091790090E0922B08958F9214
:100E40009F92AF92BF92CF92DF92EF92FF926B018F
:100E50007C010E949B054B015C01C114D104E1049B
:100E6000F104F1F00E949B05DC01CB01881999097E
:100E7000AA09BB09883E9340A105B10570F321E0A2
:100E8000C21AD108E108F10888EE880E83E0981EA6
:100E9000A11CB11CC114D104E104F10419F7DDCF88
:100EA000FF90EF90DF90CF90BF90AF909F908F908A
:100EB00008951F920F920FB60F9211242F933F9314
:100EC0008F939F93AF93BF938091BC019091BD018D
:100ED000A091BE01B091BF0130919A0223E0230F8F
:100EE0002D3720F40196A11DB11D05C026E8230F62
:100EF0000296A11DB11D20939A028093BC0190938C
:100F0000BD01A093BE01B093BF0180919B0290915F
:100F10009C02A0919D02B0919E020196A11DB11D5F
:100F200080939B0290939C02A0939D02B0939E029B
:100F3000BF91AF919F918F913F912F910F900FBED5
:100F40000F901F901895CF92DF92EF92FF920F9320
:100F50001F93CF93DF936C018B017A0146175707DC
:100F600020F4812F8A01E62EF82E66E671E0C60194
:100F70000E944804C0919802D09199020C171D0755
:100F8000E0F4EC16FD0608F4E701E0919402F0911C
:100F90009502EC0FFD1FF080108260919402709119
:100FA0009502600F711FC6010E941B03809194027D
:100FB00090919502C80FD91FF882C601DF91CF9199
:100FC0001F910F91FF90EF90DF90CF900895CF93F6
:100FD000DF93CDB7DEB7C654D1090FB6F894DEBFA4
:100FE0000FBECDBF789484B5826084BD84B5816026
:100FF00084BD85B5826085BD85B5816085BD8091E4
:101000006E00816080936E0010928100809181005B
:101010008260809381008091810081608093810053
:10102000809180008160809380008091B100846015
:101030008093B1008091B00081608093B000809176
:101040007A00846080937A0080917A008260809335
:101050007A0080917A00816080937A0080917A0092
:10106000806880937A001092C100E091D001F091E5
:10107000D10182E08083E091CC01F091CD0110821A
:10108000E091CE01F091CF0187E680831092D801E4
:10109000E091D401F091D50186E08083E091D20106
:1010A000F091D301808180618083E091D201F09141
:1010B000D301808188608083E091D201F091D301D7
:1010C000808180688083E091D201F091D30180819A
:1010D0008F7D8083109278021092770210927602B0
:1010E0001092750210927402109273028DEC90E0CF
:1010F00090937A028093790290916902963108F078
:1011000058C025E530E030937402209373022BEC35
:1011100030E0309376022093750220E930E030937E
:1011200078022093770240916800983058F031E0BF
:101130009E3008F430E021E0822F01C0880F3A95FC
:10114000EAF701C084E0842B80936800983038F07F
:101150009E3040F0963148F020E030E008C02DE6A7
:1011600030E005C02BE630E002C02CE630E03093E2
:10117000710220937002983030F481E001C0880F32
:101180009A95EAF70EC0292F30E09E3018F42850C7
:10119000310902C02E50310981E001C0880F2A9523
:1011A000EAF7809372028091790290917A02019716
:1011B000F1F78091770290917802892B49F1E091C3
:1011C000AA01F091AB0122E0ED35F20709F1309769
:1011D00039F0A389B4899C918589809589238C9362
:1011E00080917B028E7F80937B021092A9011092E6
:1011F000A8018DE592E09093AB018093AA01E09164
:101200007002F0917102908180917202892B80832B
:1012100061E08CE00E94C60661E08CE00E949706C7
:1012200061E08DE00E94C60662E082E00E94C60690
:1012300060E08DE00E94970681E08093080134E72A
:10124000832E30E0932E40EBC42E40E0D42E5CE998
:10125000A52E50E0B52E8E010F5F1F4F6EE4362E87
:1012600074EB472E7BE2572E71E1672E712CF4014F
:101270008491F601F490F501E490EE20A1F0811143
:101280000E946E06EE2DF0E0EE0FFF1FEA57FF4FB3
:10129000A591B4918C91F82291E080E009F490E05E
:1012A000E92EF82E02C0E12CF12C809102019091E0
:1012B00003018E159F0599F02FB7F8948091BC011A
:1012C0009091BD01A091BE01B091BF012FBF80934D
:1012D000AC019093AD01A093AE01B093AF012FB7D5
:1012E000F8948091BC019091BD01A091BE01B09194
:1012F000BF012FBF4091AC015091AD016091AE0193
:101300007091AF01841B950BA60BB70BC397A1057A
:10131000B10508F453C080910001909101018E1530
:101320009F0509F44BC0F0920101E0920001E11425
:10133000F10409F043C06CE772E0C8010E94320377
:1013400062E872E0C8010E940206BC01CE018F5B18
:101350009F4F0E943203C8010E947B0266E371E046
:10136000C8010E94F811F80101900020E9F73197B7
:10137000AF01401B510BB801CE018F5B9F4F0E9404
:10138000A702CE018F5B9F4F0E9415068DE592E06C
:101390000E940302892B69F4BE016F5B7F4F8DE5CC
:1013A00092E00E945D0464E170E080E090E00E94C1
:1013B0001F07CE018F5B9F4F0E947B02F0920301BB
:1013C000E09202018EE00E9402077C019093B50139
:1013D0008093B40161E070E080E090E00E941F071C
:1013E000209106013091070181E090E02E153F0524
:1013F00014F080E090E040910401509105014817FD
:10140000590709F44BC090930501809304012E15F0
:101410003F050CF043C06CE772E0C8010E94320344
:1014200062E872E0C8010E940206BC01CE018F5B37
:101430009F4F0E943203C8010E947B026FE371E05C
:10144000C8010E94F811F80101900020E9F73197D6
:10145000AF01401B510BB801CE018F5B9F4F0E9423
:10146000A702CE018F5B9F4F0E9415068DE592E08B
:101470000E940302892B69F4BE016F5B7F4F8DE5EB
:1014800092E00E945D046CE271E080E090E00E94D6
:101490001F07CE018F5B9F4F0E947B0266E671E0C3
:1014A00084E992E00E941B0380EC91E00E94E90035
:1014B000892BE9F080EC91E00E94E900892B81F012
:1014C00080EC91E00E94C700682F84E992E00E94BE
:1014D000D50264E170E080E090E00E941F07EACF4F
:1014E00084E992E00E9415060E946B04E0C18DE53C
:1014F00092E00E940302892B09F43FC164E670E088
:1015000080E090E00E941F078DE592E00E940302B8
:10151000892B51F08DE592E00E941B02682F84E92F
:1015200092E00E94D502F0CF44E050E060E070E02D
:10153000C8010E94A307B8018EE892E00E94410210
:10154000C8010E947B0262E872E0C8010E94320377
:101550006CE772E0C8010E9402064091920250912D
:101560009302FC01248135814217530709F0A2C17F
:101570000E944006892B09F09DC1FF24F394C80105
:101580000E947B02FF20C9F140919802509199027C
:1015900064E070E0C8010E94A307B80184E992E00A
:1015A0000E944102C8010E947B020E946B046CE70A
:1015B00072E0C8010E94320362E872E0C8010E9432
:1015C0000206BC01CE018F5B9F4F0E943203C8010F
:1015D0000E947B026FE471E0C8010E9448042091E0
:1015E0009802309199028D819E812817390760F009
:1015F000C8010E942A06F82E08C066E671E084E958
:1016000092E00E941B0353C1F12CC8010E947B028F
:10161000FF2009F446C080919802909199020597A5
:10162000F9F4C8010E944C03B801CE018F5B9F4FB3
:101630000E944102C8010E947B02CE018F5B9F4F36
:101640000E9415068DE592E00E940302892B49F560
:10165000BE016F5B7F4F8DE592E00E945D0421C06B
:1016600046E050E065E070E0C8010E94A307B801C1
:10167000CE018F5B9F4F0E944102C8010E947B02F6
:1016800023968EAD9FAD2397009719F00E94810D90
:1016900003C060E070E0CB017093BB016093BA01BE
:1016A000C0CF64E571E0C8010E944804209198020F
:1016B000309199028D819E812817390728F0C80141
:1016C0000E942A06F82E01C0F12CC8010E947B025C
:1016D000FF2009F446C040919802509199024A3087
:1016E0005105F9F4C8010E944C03B801CE018F5B8B
:1016F0009F4F0E944102C8010E947B02CE018F5B76
:101700009F4F0E9415068DE592E00E940302892BEF
:1017100041F5BE016F5B7F4F8DE592E00E945D0455
:1017200020C06AE070E0C8010E94A307B801CE01A2
:101730008F5B9F4F0E944102C8010E947B0223964B
:101740008EAD9FAD2397009769F20E94810D16160A
:1017500017061806190634F6709307016093060100
:10176000C1CF66E671E084E992E00E941B03CE01DE
:101770008F5B9F4F0E947B029AC08091BA0190912B
:10178000BB018130910509F492C008F08AC02FB7DF
:10179000F8948091BC019091BD01A091BE01B091DF
:1017A000BF012FBF4091B6015091B7016091B801C0
:1017B0007091B901841B950BA60BB70B8938934127
:1017C000A105B10508F473C08EE00E940207909352
:1017D000B5018093B40130927C0062E070E080E05B
:1017E00090E00E941F0780917A00806480937A00C5
:1017F00080917A0086FDFCCF80917800209179005D
:1018000030E0322F2227A901330F660B770B9A01A4
:10181000AB01282BC301B2010E949F0FCA01B9017D
:101820000E94250E27ED33EA40EB5FE30E94600E35
:101830000E94550F6093B0017093B1018093B20183
:101840009093B301C8010E944C03B80188E892E06C
:101850000E944102C8010E947B0288E892E00E9437
:1018600015068DE592E00E940302892B31F468E8A9
:1018700072E08DE592E00E945D042FB7F8948091AC
:10188000BC019091BD01A091BE01B091BF012FBFDD
:101890008093B6019093B701A093B801B093B901BA
:1018A00006C062E370E080E090E00E941F070E94A3
:1018B0009001DDCC6CE772E0CE018F5B9F4F0E9400
:1018C00032036CE772E0CE018F5B9F4F0E940206ED
:1018D0004091920250919302FC012481358142177C
:1018E000530731F40E944006FF24F394892B09F03A
:1018F000F12CCE018F5B9F4F0E947B0240CE85E290
:1019000091E090935E0280935D028091AA01909194
:10191000AB018D55924071F4E0917002F09171022B
:101920009081809172028095892380831092AB010F
:101930001092AA018CE792E00E947B0282E892E07A
:101940000E947B0288E892E00E947B028EE892E08F
:101950000E947B0284E992E00C947B02CF92DF929A
:10196000EF92FF921092C3011092C20198EEC92E1D
:1019700093E0D92EE12CF12CC092C401D092C50184
:10198000E092C601F092C70183E191E09093C1011A
:101990008093C00185EC90E09093CD018093CC01C1
:1019A00084EC90E09093CF018093CE0180EC90E0A6
:1019B0009093D1018093D00181EC90E09093D3017A
:1019C0008093D20182EC90E09093D5018093D40172
:1019D00086EC90E09093D7018093D6011092D901C4
:1019E0001092DA011092DB011092DC0166E671E0E0
:1019F00084E992E00E94480466E671E08EE892E095
:101A00000E94480466E671E088E892E00E9448047B
:101A10006EE571E082E892E00E94480461E671E0C0
:101A20008CE792E00E9448041092600210925F02DC
:101A3000C0926102D0926202E0926302F09264026C
:101A400085E291E090935E0280935D0210927402B1
:101A50001092730210927602109275021092780220
:101A60001092770210927A021092790260917B02B2
:101A70006E7F6D7F60937B026695617081E0682761
:101A80008BE00E94970661E08BE00E94C606E9EBBE
:101A9000F0E0E491E0936D02E5EAF0E0E491F0E03B
:101AA000EE0FFF1FE057FF4F8591949190936F02C7
:101AB00080936E0260E08AE00E94C60680917B02FD
:101AC00081FD04C061E08AE00E9497068AE080936D
:101AD0006902E8EBF0E0E491E0936A02E4EAF0E006
:101AE000E491F0E0EE0FFF1FEA57FF4F85919491CC
:101AF00090936C0280936B02FF90EF90DF90CF90F9
:101B000008951F93FC0199278827BC01E89411913F
:101B10001032E9F3193010F01E30C8F31B3251F0C7
:101B20001D3249F4689406C00E94C20D610F711DF8
:101B3000811D911D119110531A30B0F33EF4909510
:101B40008095709561957F4F8F4F9F4F1F9108959E
:101B5000BB274A3031F4992322F4BDE29095819558
:101B60009F4F0C94FA0DBB272A3051F4992342F46D
:101B7000BDE290958095709561957F4F8F4F9F4FF7
:101B80000C94D80D592F482F372F262F660F771F0B
:101B9000881F991F660F771F881F991F620F731F79
:101BA000841F951F660F771F881F991F0895BB27F5
:101BB000FA01A62F6217710581059105330B30FBE1
:101BC00066F0AA27660F771F881F991FAA1FA21702
:101BD00010F0A21B63953850A9F7A05DAA3308F056
:101BE000A95DA19336F7B111B1931082CA010C948B
:101BF000130EBB27FB015527AA27880F991FAA1F81
:101C0000A41710F0A41B83955051B9F7A05DAA3317
:101C100008F0A95DA193009779F7B111B1931192E2
:101C2000CB010C94130EDC01FC01672F719177231B
:101C3000E1F7329704C07C916D9370836291AE1787
:101C4000BF07C8F30895E89409C097FB3EF4909548
:101C50008095709561957F4F8F4F9F4F9923A9F085
:101C6000F92F96E9BB279395F69587957795679514
:101C7000B795F111F8CFFAF4BB0F11F460FF1BC058
:101C80006F5F7F4F8F4F9F4F16C0882311F096E9EB
:101C900011C0772321F09EE8872F762F05C0662399
:101CA00071F096E8862F70E060E02AF09A95660F52
:101CB000771F881FDAF7880F9695879597F908950B
:101CC0000E94730E0C94E40E0E94D60E38F00E940F
:101CD000DD0E20F0952311F00C94CD0E0C94D30E54
:101CE00011240C94180F0E94F50E70F3959FC1F308
:101CF000950F50E0551F629FF001729FBB27F00DBA
:101D0000B11D639FAA27F00DB11DAA1F649F66270E
:101D1000B00DA11D661F829F2227B00DA11D621F5D
:101D2000739FB00DA11D621F839FA00D611D221F17
:101D3000749F3327A00D611D231F849F600D211DFB
:101D4000822F762F6A2F11249F5750409AF0F1F07E
:101D500088234AF0EE0FFF1FBB1F661F771F881FE7
:101D600091505040A9F79E3F510580F00C94CD0E44
:101D70000C94180F5F3FE4F3983ED4F38695779563
:101D80006795B795F795E7959F5FC1F7FE2B880F8D
:101D9000911D9695879597F9089597F99F6780E823
:101DA00070E060E008959FEF80EC089500240A94AD
:101DB0001616170618060906089500240A94121626
:101DC0001306140605060895092E0394000C11F459
:101DD000882352F0BB0F40F4BF2B11F460FF04C006
:101DE0006F5F7F4F8F4F9F4F089557FD9058440F5F
:101DF000551F59F05F3F71F04795880F97FB991F6A
:101E000061F09F3F79F08795089512161306140626
:101E1000551FF2CF4695F1DF08C0161617061806B3
:101E2000991FF1CF86957105610508940895E8948E
:101E3000BB2766277727CB0197F908952F923F920A
:101E40004F925F926F927F928F929F92AF92BF92CA
:101E5000CF92DF92EF92FF920F931F93CF93DF9376
:101E6000CDB7DEB7CA1BDB0B0FB6F894DEBF0FBED3
:101E7000CDBF09942A88398848885F846E847D8420
:101E80008C849B84AA84B984C884DF80EE80FD8022
:101E90000C811B81AA81B981CE0FD11D0FB6F89498
:101EA000DEBF0FBECDBFED0108950E945C0F6894A8
:101EB000B1110C94180F08950E94FD0E88F09F57E1
:101EC00098F0B92F9927B751B0F0E1F0660F771F5E
:101ED000881F991F1AF0BA95C9F714C0B13091F054
:101EE0000E94170FB1E008950C94170F672F782FF9
:101EF0008827B85F39F0B93FCCF386957795679519
:101F0000B395D9F73EF490958095709561957F4F84
:101F10008F4F9F4F089597FB072E16F4009407D01C
:101F200077FD09D00E94BE0F07FC05D03EF49095C6
:101F300081959F4F0895709561957F4F0895052E67
:101F400097FB1EF400940E94B60F57FD07D00E9425
:101F5000D20F07FC03D04EF40C94B60F5095409569
:101F6000309521953F4F4F4F5F4F08959095809545
:101F7000709561957F4F8F4F9F4F0895AA1BBB1B94
:101F800051E107C0AA1FBB1FA617B70710F0A61B79
:101F9000B70B881F991F5A95A9F780959095BC019A
:101FA000CD010895A1E21A2EAA1BBB1BFD010DC095
:101FB000AA1FBB1FEE1FFF1FA217B307E407F507F9
:101FC00020F0A21BB30BE40BF50B661F771F881FD5
:101FD000991F1A9469F760957095809590959B016B
:101FE000AC01BD01CF010895EE0FFF1F0590F491E4
:101FF000E02D09940F931F93CF93DF9382309105C7
:1020000010F482E090E0E091A102F091A20220E0C1
:1020100030E0A0E0B0E0309719F1408151810281B9
:10202000138148175907C8F08417950769F410976A
:1020300031F012960C93129713961C9327C00093BD
:10204000A1021093A20222C02115310519F04217F6
:10205000530718F49A01BD01EF01DF01F801DBCF4E
:1020600021153105F9F0281B390B2430310580F496
:102070008A819B816115710521F0FB019383828325
:1020800004C09093A2028093A102FE01329644C044
:10209000FE01E20FF31F819391932250310939839E
:1020A00028833AC020919F023091A002232B41F453
:1020B00020910B0130910C013093A00220939F02DC
:1020C0002091090130910A012115310541F42DB704
:1020D0003EB740910D0150910E01241B350BE0914C
:1020E0009F02F091A002E217F307A0F42E1B3F0B12
:1020F0002817390778F0AC014E5F5F4F241735077A
:1021000048F04E0F5F1F5093A00240939F028193AF
:10211000919302C0E0E0F0E0CF01DF91CF911F91F9
:102120000F910895CF93DF93009709F481C0FC01CC
:10213000329713821282A091A102B091A20210974D
:1021400081F420813181820F931F20919F02309171
:10215000A0022817390751F5F093A002E0939F02DF
:1021600067C0ED0120E030E0CE17DF0740F44A8180
:102170005B819E0141155105F1F0EA01F5CFD38352
:10218000C28340815181840F951FC817D90759F424
:1021900088819981840F951F0296918380838A811B
:1021A0009B81938382832115310529F4F093A20248
:1021B000E093A1023DC0E901FB83EA834991599173
:1021C000C40FD51FEC17FD0761F480819181840F46
:1021D000951F0296E90199838883828193819B836D
:1021E0008A83E0E0F0E012968D919C91139700971E
:1021F00019F0FD01DC01F7CF8D919C9111979D01A4
:102200002E5F3F4F820F931F20919F023091A002BB
:102210002817390769F4309729F41092A202109216
:10222000A10202C013821282B093A002A0939F0267
:10223000DF91CF910895A0E0B0E0E1E2F1E10C94EC
:10224000220FEC01009721F4CB010E94FA0FB4C0D9
:10225000FC01E60FF71F9C0122503109E217F3073A
:1022600008F4A8C0D9010D911C9111970617170702
:10227000B0F00530110508F49BC0C801049786171B
:10228000970708F495C002501109061B170B01931C
:1022900011936D937C93CF010E94921089C05B01D2
:1022A000A01AB10A4C01800E911EA091A102B0911A
:1022B000A202612C712CE12CF12C109709F446C07C
:1022C0008D919C911197A815B905B1F56C0142E06B
:1022D000C40ED11CCA14DB0478F14C018A189B0887
:1022E000640142E0C40ED11C1296BC901297139662
:1022F000AC91B5E0CB16D10440F0B282A3839182B9
:102300008082D9016D937C9309C00E5F1F4F800FAF
:10231000911FF90191838083EB2DFA2FE114F104D1
:1023200031F0D7011396FC93EE93129741C0F093CE
:10233000A202E093A1023CC06816790608F43C01B1
:102340007D0112960D90BC91A02DB7CF80919F0278
:102350009091A00288169906E1F466167706C8F4F3
:102360008091090190910A01009741F48DB79EB7C1
:1023700040910D0150910E01841B950BE817F90750
:10238000C8F4F093A002E0939F02F9017183608387
:102390000FC0CB010E94FA0F7C01009759F0A801F1
:1023A000BE010E94E611CE010E949210C70104C036
:1023B000CE0102C080E090E0CDB7DEB7EEE00C9435
:1023C0003E0F81E090E0F8940C940D12FB01DC01CB
:1023D00002C001900D9241505040D8F70895FB0182
:1023E000DC018D91019080190110D9F3990B0895AA
:1023F000FB01DC0101900D920020E1F70895FB0143
:10240000DC014150504030F08D910190801919F459
:102410000020B9F7881B990B089510E0C2E6D0E0C0
:1024200004C0FE010E94F40F2196C336D107C9F7FC
:04243000F894FFCF4E
:102434000100010001000004010000A3028000006B
:1024440000000021018E00B8006E01E900C700DB26
:102454000000000000B3018E003C02B20103021B25
:10246400029A014154002042544E3A204F4E00201B
:102474005448524553484F4C4420444F4E45004D18
:102484004F4445005448524553484F4C4400303360
:08249400003030000D0A0000C9
:107800000C94343C0C94513C0C94513C0C94513CE1
:107810000C94513C0C94513C0C94513C0C94513CB4
:107820000C94513C0C94513C0C94513C0C94513CA4
:107830000C94513C0C94513C0C94513C0C94513C94
:107840000C94513C0C94513C0C94513C0C94513C84
:107850000C94513C0C94513C0C94513C0C94513C74
:107860000C94513C0C94513C11241FBECFEFD8E036
:10787000DEBFCDBF11E0A0E0B1E0ECE9FFE702C060
:1078800005900D92A230B107D9F712E0A2E0B1E065
:1078900001C01D92AD30B107E1F70E942D3D0C945F
:1078A000CC3F0C94003C982F959595959595959582
:1078B000905D8F708A307CF0282F295A8091C0000B
:1078C00085FFFCCF9093C6008091C00085FFFCCF60
:1078D0002093C6000895282F205DF0CF982F809127
:1078E000C00085FFFCCF9093C6000895EF92FF92F1
:1078F0000F931F93EE24FF2487018091C00087FD22
:1079000017C00894E11CF11C011D111D81E4E8164B
:1079100082E4F8068FE0080780E0180770F3E09132
:107920000401F091050109958091C00087FFE9CF1E
:107930008091C6001F910F91FF90EF9008950E94D3
:10794000763C982F8091C00085FFFCCF9093C600B5
:1079500091362CF490330CF09053892F089597555D
:10796000892F08951F930E949F3C182F0E949F3CCF
:107970001295107F810F1F9108951F93182F882350
:1079800021F00E94763C1150E1F71F9108951F935A
:10799000182F0E94763C803249F0809103018F5F5E
:1079A000809303018530C1F01F9108958091C0003C
:1079B00085FFFCCF84E18093C6008091C00085FFE5
:1079C000FCCF1093C6008091C00085FFFCCF80E102
:1079D0008093C6001F910895E0910401F091050184
:1079E00009951F9108950E94763C803241F0809164
:1079F00003018F5F80930301853081F008958091AA
:107A0000C00085FFFCCF84E18093C6008091C00058
:107A100085FFFCCF80E18093C6000895E0910401CA
:107A2000F09105010995089540E951E08823A1F0FE
:107A30002D9A28EE33E0FA013197F1F721503040CA
:107A4000D1F72D9828EE33E0FA013197F1F7215064
:107A50003040D1F7815061F708953F924F925F9285
:107A60006F927F928F929F92AF92BF92CF92DF924E
:107A7000EF92FF920F931F93CF93DF93000080E16B
:107A80008093C4001092C50088E18093C10086E015
:107A90008093C2005098589A259A81E00E94143D24
:107AA00024E1F22E9EE1E92E85E9D82E0FE0C02ECA
:107AB00010E1B12EAA24A394B1E49B2EA6E58A2E50
:107AC000F2E57F2EE0E26E2E79E4572E63E5462E36
:107AD00050E5352E0E94763C8033B1F18133B9F107
:107AE000803409F46FC0813409F476C0823409F41B
:107AF00085C0853409F488C0803531F1823521F1A3
:107B0000813511F1853509F485C0863509F48DC0BC
:107B1000843609F496C0843709F403C1853709F423
:107B200072C1863709F466C0809103018F5F80932C
:107B30000301853079F6E0910401F0910501099582
:107B40000E94763C803351F60E94F33CC3CF0E94E2
:107B5000763C803249F78091C00085FFFCCFF092DF
:107B6000C6008091C00085FFFCCF9092C600809136
:107B7000C00085FFFCCF8092C6008091C00085FFC9
:107B8000FCCF7092C6008091C00085FFFCCF609250
:107B9000C6008091C00085FFFCCF5092C600809146
:107BA000C00085FFFCCF4092C6008091C00085FFD9
:107BB000FCCF3092C6008091C00085FFFCCFB09210
:107BC000C60088CF0E94763C863808F4BDCF0E945C
:107BD000763C0E94F33C7ECF0E94763C803809F4CC
:107BE0009CC0813809F40BC1823809F43CC1883942
:107BF00009F48FC080E00E94C73C6CCF84E10E94F2
:107C0000BD3C0E94F33C66CF85E00E94BD3C0E94D3
:107C1000F33C60CF0E94763C809306010E94763C44
:107C2000809307010E94F33C55CF0E94763C80333D
:107C300009F41DC183E00E94BD3C80E00E94C73C66
:107C400049CF0E94763C809309020E94763C809343
:107C5000080280910C028E7F80930C020E94763C79
:107C6000853409F415C18091080290910902892B8D
:107C700089F000E010E00E94763CF801E85FFE4FDA
:107C800080830F5F1F4F80910802909109020817AF
:107C9000190788F30E94763C803209F045CF809125
:107CA0000C0280FF01C16091060170910701660F0F
:107CB000771F7093070160930601A0910802B091AD
:107CC00009021097C9F0E8E0F1E09B01AD014E0F09
:107CD0005F1FF999FECF32BD21BD819180BDFA9A17
:107CE000F99A2F5F3F4FE417F50799F76A0F7B1F4B
:107CF00070930701609306018091C00085FFFCCF5F
:107D0000F092C6008091C00085FFFCCFB092C60003
:107D1000E1CE83E00E94C73CDDCE82E00E94C73CFA
:107D2000D9CE0E94763C809309020E94763C8093D3
:107D300008028091060190910701880F991F909386
:107D40000701809306010E94763C853409F4A6C0A1
:107D500080910C028E7F80930C020E94763C8032D0
:107D600009F0B8CE8091C00085FFFCCFF092C6002C
:107D7000609108027091090261157105B9F140E046
:107D800050E080910C02A82FA170B82FB27011C0E2
:107D9000BB2309F45CC0E0910601F0910701319624
:107DA000F0930701E09306014F5F5F4F46175707B7
:107DB000E8F4AA2369F3F999FECF209106013091E6
:107DC000070132BD21BDF89A90B58091C00085FFB2
:107DD000FCCF9093C6002F5F3F4F30930701209355
:107DE00006014F5F5F4F4617570718F38091C00099
:107DF00085FDE5CE8091C00085FFF8CFE0CE81E023
:107E00000E94C73C67CE0E94763C803209F08CCE3F
:107E10008091C00085FFFCCFF092C6008091C00029
:107E200085FFFCCFE092C6008091C00085FFFCCFAB
:107E3000D092C6008091C00085FFFCCFC092C600E2
:107E40008091C00085FFFCCFB092C60043CEE09188
:107E50000601F091070194918091C00085FFFCCF4D
:107E60009093C6009CCF80E10E94C73C33CE0E9415
:107E7000763C0E94763C182F0E94763C112309F430
:107E800083C0113009F484C08FE00E94C73C22CE29
:107E900080910C02816080930C02E5CE80910C02EF
:107EA000816080930C0259CF809107018823880F4D
:107EB000880B8A2180930B02809106019091070123
:107EC000880F991F90930701809306018091080203
:107ED00080FF09C080910802909109020196909359
:107EE000090280930802F894F999FECF1127E091D6
:107EF0000601F0910701C8E0D1E08091080290915D
:107F00000902103091F40091570001700130D9F34B
:107F100003E000935700E89500915700017001308D
:107F2000D9F301E100935700E89509901990009169
:107F3000570001700130D9F301E000935700E89534
:107F40001395103498F011270091570001700130FB
:107F5000D9F305E000935700E895009157000170B0
:107F60000130D9F301E100935700E895329602976A
:107F700009F0C7CF103011F00296E5CF112480919F
:107F8000C00085FFB9CEBCCE8EE10E94C73CA2CD19
:0C7F900085E90E94C73C9ECDF894FFCF0D
:027F9C00800063
:040000030000780081
:00000001FF
